{
  "_format": "hh-sol-artifact-1",
  "contractName": "NFT",
  "sourceName": "contracts/NFT.sol",
  "abi": [
    {
      "inputs": [],
      "stateMutability": "nonpayable",
      "type": "constructor"
    },
    {
      "anonymous": false,
      "inputs": [
        {
          "indexed": true,
          "internalType": "address",
          "name": "owner",
          "type": "address"
        },
        {
          "indexed": true,
          "internalType": "address",
          "name": "approved",
          "type": "address"
        },
        {
          "indexed": true,
          "internalType": "uint256",
          "name": "tokenId",
          "type": "uint256"
        }
      ],
      "name": "Approval",
      "type": "event"
    },
    {
      "anonymous": false,
      "inputs": [
        {
          "indexed": true,
          "internalType": "address",
          "name": "owner",
          "type": "address"
        },
        {
          "indexed": true,
          "internalType": "address",
          "name": "operator",
          "type": "address"
        },
        {
          "indexed": false,
          "internalType": "bool",
          "name": "approved",
          "type": "bool"
        }
      ],
      "name": "ApprovalForAll",
      "type": "event"
    },
    {
      "anonymous": false,
      "inputs": [
        {
          "indexed": true,
          "internalType": "address",
          "name": "previousOwner",
          "type": "address"
        },
        {
          "indexed": true,
          "internalType": "address",
          "name": "newOwner",
          "type": "address"
        }
      ],
      "name": "OwnershipTransferred",
      "type": "event"
    },
    {
      "anonymous": false,
      "inputs": [
        {
          "indexed": true,
          "internalType": "address",
          "name": "from",
          "type": "address"
        },
        {
          "indexed": true,
          "internalType": "address",
          "name": "to",
          "type": "address"
        },
        {
          "indexed": true,
          "internalType": "uint256",
          "name": "tokenId",
          "type": "uint256"
        }
      ],
      "name": "Transfer",
      "type": "event"
    },
    {
      "inputs": [],
      "name": "MINT_PRICE",
      "outputs": [
        {
          "internalType": "uint256",
          "name": "",
          "type": "uint256"
        }
      ],
      "stateMutability": "view",
      "type": "function"
    },
    {
      "inputs": [],
      "name": "TOTAL_SUPPLY",
      "outputs": [
        {
          "internalType": "uint256",
          "name": "",
          "type": "uint256"
        }
      ],
      "stateMutability": "view",
      "type": "function"
    },
    {
      "inputs": [
        {
          "internalType": "address",
          "name": "to",
          "type": "address"
        },
        {
          "internalType": "uint256",
          "name": "tokenId",
          "type": "uint256"
        }
      ],
      "name": "approve",
      "outputs": [],
      "stateMutability": "nonpayable",
      "type": "function"
    },
    {
      "inputs": [
        {
          "internalType": "address",
          "name": "owner",
          "type": "address"
        }
      ],
      "name": "balanceOf",
      "outputs": [
        {
          "internalType": "uint256",
          "name": "",
          "type": "uint256"
        }
      ],
      "stateMutability": "view",
      "type": "function"
    },
    {
      "inputs": [],
      "name": "baseTokenURI",
      "outputs": [
        {
          "internalType": "string",
          "name": "",
          "type": "string"
        }
      ],
      "stateMutability": "view",
      "type": "function"
    },
    {
      "inputs": [
        {
          "internalType": "uint256",
          "name": "tokenId",
          "type": "uint256"
        }
      ],
      "name": "getApproved",
      "outputs": [
        {
          "internalType": "address",
          "name": "",
          "type": "address"
        }
      ],
      "stateMutability": "view",
      "type": "function"
    },
    {
      "inputs": [
        {
          "internalType": "address",
          "name": "owner",
          "type": "address"
        },
        {
          "internalType": "address",
          "name": "operator",
          "type": "address"
        }
      ],
      "name": "isApprovedForAll",
      "outputs": [
        {
          "internalType": "bool",
          "name": "",
          "type": "bool"
        }
      ],
      "stateMutability": "view",
      "type": "function"
    },
    {
      "inputs": [
        {
          "internalType": "address",
          "name": "recipient",
          "type": "address"
        }
      ],
      "name": "mintTo",
      "outputs": [
        {
          "internalType": "uint256",
          "name": "",
          "type": "uint256"
        }
      ],
      "stateMutability": "payable",
      "type": "function"
    },
    {
      "inputs": [],
      "name": "name",
      "outputs": [
        {
          "internalType": "string",
          "name": "",
          "type": "string"
        }
      ],
      "stateMutability": "view",
      "type": "function"
    },
    {
      "inputs": [],
      "name": "owner",
      "outputs": [
        {
          "internalType": "address",
          "name": "",
          "type": "address"
        }
      ],
      "stateMutability": "view",
      "type": "function"
    },
    {
      "inputs": [
        {
          "internalType": "uint256",
          "name": "tokenId",
          "type": "uint256"
        }
      ],
      "name": "ownerOf",
      "outputs": [
        {
          "internalType": "address",
          "name": "",
          "type": "address"
        }
      ],
      "stateMutability": "view",
      "type": "function"
    },
    {
      "inputs": [
        {
          "internalType": "address",
          "name": "dest",
          "type": "address"
        }
      ],
      "name": "payments",
      "outputs": [
        {
          "internalType": "uint256",
          "name": "",
          "type": "uint256"
        }
      ],
      "stateMutability": "view",
      "type": "function"
    },
    {
      "inputs": [],
      "name": "renounceOwnership",
      "outputs": [],
      "stateMutability": "nonpayable",
      "type": "function"
    },
    {
      "inputs": [
        {
          "internalType": "address",
          "name": "from",
          "type": "address"
        },
        {
          "internalType": "address",
          "name": "to",
          "type": "address"
        },
        {
          "internalType": "uint256",
          "name": "tokenId",
          "type": "uint256"
        }
      ],
      "name": "safeTransferFrom",
      "outputs": [],
      "stateMutability": "nonpayable",
      "type": "function"
    },
    {
      "inputs": [
        {
          "internalType": "address",
          "name": "from",
          "type": "address"
        },
        {
          "internalType": "address",
          "name": "to",
          "type": "address"
        },
        {
          "internalType": "uint256",
          "name": "tokenId",
          "type": "uint256"
        },
        {
          "internalType": "bytes",
          "name": "data",
          "type": "bytes"
        }
      ],
      "name": "safeTransferFrom",
      "outputs": [],
      "stateMutability": "nonpayable",
      "type": "function"
    },
    {
      "inputs": [
        {
          "internalType": "address",
          "name": "operator",
          "type": "address"
        },
        {
          "internalType": "bool",
          "name": "approved",
          "type": "bool"
        }
      ],
      "name": "setApprovalForAll",
      "outputs": [],
      "stateMutability": "nonpayable",
      "type": "function"
    },
    {
      "inputs": [
        {
          "internalType": "string",
          "name": "_baseTokenURI",
          "type": "string"
        }
      ],
      "name": "setBaseTokenURI",
      "outputs": [],
      "stateMutability": "nonpayable",
      "type": "function"
    },
    {
      "inputs": [
        {
          "internalType": "bytes4",
          "name": "interfaceId",
          "type": "bytes4"
        }
      ],
      "name": "supportsInterface",
      "outputs": [
        {
          "internalType": "bool",
          "name": "",
          "type": "bool"
        }
      ],
      "stateMutability": "view",
      "type": "function"
    },
    {
      "inputs": [],
      "name": "symbol",
      "outputs": [
        {
          "internalType": "string",
          "name": "",
          "type": "string"
        }
      ],
      "stateMutability": "view",
      "type": "function"
    },
    {
      "inputs": [
        {
          "internalType": "uint256",
          "name": "tokenId",
          "type": "uint256"
        }
      ],
      "name": "tokenURI",
      "outputs": [
        {
          "internalType": "string",
          "name": "",
          "type": "string"
        }
      ],
      "stateMutability": "view",
      "type": "function"
    },
    {
      "inputs": [
        {
          "internalType": "address",
          "name": "from",
          "type": "address"
        },
        {
          "internalType": "address",
          "name": "to",
          "type": "address"
        },
        {
          "internalType": "uint256",
          "name": "tokenId",
          "type": "uint256"
        }
      ],
      "name": "transferFrom",
      "outputs": [],
      "stateMutability": "nonpayable",
      "type": "function"
    },
    {
      "inputs": [
        {
          "internalType": "address",
          "name": "newOwner",
          "type": "address"
        }
      ],
      "name": "transferOwnership",
      "outputs": [],
      "stateMutability": "nonpayable",
      "type": "function"
    },
    {
      "inputs": [
        {
          "internalType": "address payable",
          "name": "payee",
          "type": "address"
        }
      ],
      "name": "withdrawPayments",
      "outputs": [],
      "stateMutability": "nonpayable",
      "type": "function"
    }
  ],
  "bytecode": "0x60a06040523480156200001157600080fd5b506040518060400160405280600b81526020017f4e46545475746f7269616c0000000000000000000000000000000000000000008152506040518060400160405280600381526020017f4e4654000000000000000000000000000000000000000000000000000000000081525081600090805190602001906200009692919062000230565b508060019080519060200190620000af92919062000230565b505050604051620000c090620002c1565b604051809103906000f080158015620000dd573d6000803e3d6000fd5b5073ffffffffffffffffffffffffffffffffffffffff1660808173ffffffffffffffffffffffffffffffffffffffff1660601b8152505062000134620001286200016260201b60201c565b6200016a60201b60201c565b60405180602001604052806000815250600890805190602001906200015b92919062000230565b5062000353565b600033905090565b6000600660009054906101000a900473ffffffffffffffffffffffffffffffffffffffff16905081600660006101000a81548173ffffffffffffffffffffffffffffffffffffffff021916908373ffffffffffffffffffffffffffffffffffffffff1602179055508173ffffffffffffffffffffffffffffffffffffffff168173ffffffffffffffffffffffffffffffffffffffff167f8be0079c531659141344cd1fd0a4f28419497f9722a3daafe3b4186f6b6457e060405160405180910390a35050565b8280546200023e90620002ee565b90600052602060002090601f016020900481019282620002625760008555620002ae565b82601f106200027d57805160ff1916838001178555620002ae565b82800160010185558215620002ae579182015b82811115620002ad57825182559160200191906001019062000290565b5b509050620002bd9190620002cf565b5090565b610bb7806200349c83390190565b5b80821115620002ea576000816000905550600101620002d0565b5090565b600060028204905060018216806200030757607f821691505b602082108114156200031e576200031d62000324565b5b50919050565b7f4e487b7100000000000000000000000000000000000000000000000000000000600052602260045260246000fd5b60805160601c6131236200037960003960008181610d88015261144001526131236000f3fe6080604052600436106101405760003560e01c8063755edd17116100b6578063c002d23d1161006f578063c002d23d1461044b578063c87b56dd14610476578063d547cfb7146104b3578063e2982c21146104de578063e985e9c51461051b578063f2fde38b1461055857610140565b8063755edd17146103485780638da5cb5b14610378578063902d55a5146103a357806395d89b41146103ce578063a22cb465146103f9578063b88d4fde1461042257610140565b806330176e131161010857806330176e131461023c57806331b3eb941461026557806342842e0e1461028e5780636352211e146102b757806370a08231146102f4578063715018a61461033157610140565b806301ffc9a71461014557806306fdde0314610182578063081812fc146101ad578063095ea7b3146101ea57806323b872dd14610213575b600080fd5b34801561015157600080fd5b5061016c60048036038101906101679190612217565b610581565b604051610179919061268e565b60405180910390f35b34801561018e57600080fd5b50610197610663565b6040516101a491906126a9565b60405180910390f35b3480156101b957600080fd5b506101d460048036038101906101cf91906122aa565b6106f5565b6040516101e1919061260c565b60405180910390f35b3480156101f657600080fd5b50610211600480360381019061020c91906121db565b61073b565b005b34801561021f57600080fd5b5061023a600480360381019061023591906120d5565b610853565b005b34801561024857600080fd5b50610263600480360381019061025e9190612269565b6108b3565b005b34801561027157600080fd5b5061028c60048036038101906102879190612070565b6108cd565b005b34801561029a57600080fd5b506102b560048036038101906102b091906120d5565b6108e1565b005b3480156102c357600080fd5b506102de60048036038101906102d991906122aa565b610901565b6040516102eb919061260c565b60405180910390f35b34801561030057600080fd5b5061031b60048036038101906103169190612047565b6109b3565b60405161032891906128ab565b60405180910390f35b34801561033d57600080fd5b50610346610a6b565b005b610362600480360381019061035d9190612047565b610a7f565b60405161036f91906128ab565b60405180910390f35b34801561038457600080fd5b5061038d610b48565b60405161039a919061260c565b60405180910390f35b3480156103af57600080fd5b506103b8610b72565b6040516103c591906128ab565b60405180910390f35b3480156103da57600080fd5b506103e3610b78565b6040516103f091906126a9565b60405180910390f35b34801561040557600080fd5b50610420600480360381019061041b919061219f565b610c0a565b005b34801561042e57600080fd5b5061044960048036038101906104449190612124565b610c20565b005b34801561045757600080fd5b50610460610c82565b60405161046d91906128ab565b60405180910390f35b34801561048257600080fd5b5061049d600480360381019061049891906122aa565b610c8e565b6040516104aa91906126a9565b60405180910390f35b3480156104bf57600080fd5b506104c8610cf6565b6040516104d591906126a9565b60405180910390f35b3480156104ea57600080fd5b5061050560048036038101906105009190612047565b610d84565b60405161051291906128ab565b60405180910390f35b34801561052757600080fd5b50610542600480360381019061053d9190612099565b610e36565b60405161054f919061268e565b60405180910390f35b34801561056457600080fd5b5061057f600480360381019061057a9190612047565b610eca565b005b60007f80ac58cd000000000000000000000000000000000000000000000000000000007bffffffffffffffffffffffffffffffffffffffffffffffffffffffff1916827bffffffffffffffffffffffffffffffffffffffffffffffffffffffff1916148061064c57507f5b5e139f000000000000000000000000000000000000000000000000000000007bffffffffffffffffffffffffffffffffffffffffffffffffffffffff1916827bffffffffffffffffffffffffffffffffffffffffffffffffffffffff1916145b8061065c575061065b82610f4e565b5b9050919050565b60606000805461067290612b13565b80601f016020809104026020016040519081016040528092919081815260200182805461069e90612b13565b80156106eb5780601f106106c0576101008083540402835291602001916106eb565b820191906000526020600020905b8154815290600101906020018083116106ce57829003601f168201915b5050505050905090565b600061070082610fb8565b6004600083815260200190815260200160002060009054906101000a900473ffffffffffffffffffffffffffffffffffffffff169050919050565b600061074682610901565b90508073ffffffffffffffffffffffffffffffffffffffff168373ffffffffffffffffffffffffffffffffffffffff1614156107b7576040517f08c379a00000000000000000000000000000000000000000000000000000000081526004016107ae9061284b565b60405180910390fd5b8073ffffffffffffffffffffffffffffffffffffffff166107d6611003565b73ffffffffffffffffffffffffffffffffffffffff1614806108055750610804816107ff611003565b610e36565b5b610844576040517f08c379a000000000000000000000000000000000000000000000000000000000815260040161083b906127cb565b60405180910390fd5b61084e838361100b565b505050565b61086461085e611003565b826110c4565b6108a3576040517f08c379a000000000000000000000000000000000000000000000000000000000815260040161089a9061288b565b60405180910390fd5b6108ae838383611159565b505050565b80600890805190602001906108c9929190611e41565b5050565b6108d56113c0565b6108de8161143e565b50565b6108fc83838360405180602001604052806000815250610c20565b505050565b6000806002600084815260200190815260200160002060009054906101000a900473ffffffffffffffffffffffffffffffffffffffff169050600073ffffffffffffffffffffffffffffffffffffffff168173ffffffffffffffffffffffffffffffffffffffff1614156109aa576040517f08c379a00000000000000000000000000000000000000000000000000000000081526004016109a19061282b565b60405180910390fd5b80915050919050565b60008073ffffffffffffffffffffffffffffffffffffffff168273ffffffffffffffffffffffffffffffffffffffff161415610a24576040517f08c379a0000000000000000000000000000000000000000000000000000000008152600401610a1b906127ab565b60405180910390fd5b600360008373ffffffffffffffffffffffffffffffffffffffff1673ffffffffffffffffffffffffffffffffffffffff168152602001908152602001600020549050919050565b610a736113c0565b610a7d60006114cc565b565b600080610a8c6007611592565b90506127108110610ad2576040517f08c379a0000000000000000000000000000000000000000000000000000000008152600401610ac99061286b565b60405180910390fd5b67011c37937e0800003414610b1c576040517f08c379a0000000000000000000000000000000000000000000000000000000008152600401610b139061278b565b60405180910390fd5b610b2660076115a0565b6000610b326007611592565b9050610b3e84826115b6565b8092505050919050565b6000600660009054906101000a900473ffffffffffffffffffffffffffffffffffffffff16905090565b61271081565b606060018054610b8790612b13565b80601f0160208091040260200160405190810160405280929190818152602001828054610bb390612b13565b8015610c005780601f10610bd557610100808354040283529160200191610c00565b820191906000526020600020905b815481529060010190602001808311610be357829003601f168201915b5050505050905090565b610c1c610c15611003565b83836115d4565b5050565b610c31610c2b611003565b836110c4565b610c70576040517f08c379a0000000000000000000000000000000000000000000000000000000008152600401610c679061288b565b60405180910390fd5b610c7c84848484611741565b50505050565b67011c37937e08000081565b6060610c9982610fb8565b6000610ca361179d565b90506000815111610cc35760405180602001604052806000815250610cee565b80610ccd8461182f565b604051602001610cde9291906125e8565b6040516020818303038152906040525b915050919050565b60088054610d0390612b13565b80601f0160208091040260200160405190810160405280929190818152602001828054610d2f90612b13565b8015610d7c5780601f10610d5157610100808354040283529160200191610d7c565b820191906000526020600020905b815481529060010190602001808311610d5f57829003601f168201915b505050505081565b60007f000000000000000000000000000000000000000000000000000000000000000073ffffffffffffffffffffffffffffffffffffffff1663e3a9db1a836040518263ffffffff1660e01b8152600401610ddf919061260c565b60206040518083038186803b158015610df757600080fd5b505afa158015610e0b573d6000803e3d6000fd5b505050506040513d601f19601f82011682018060405250810190610e2f91906122d3565b9050919050565b6000600560008473ffffffffffffffffffffffffffffffffffffffff1673ffffffffffffffffffffffffffffffffffffffff16815260200190815260200160002060008373ffffffffffffffffffffffffffffffffffffffff1673ffffffffffffffffffffffffffffffffffffffff16815260200190815260200160002060009054906101000a900460ff16905092915050565b610ed26113c0565b600073ffffffffffffffffffffffffffffffffffffffff168173ffffffffffffffffffffffffffffffffffffffff161415610f42576040517f08c379a0000000000000000000000000000000000000000000000000000000008152600401610f39906126eb565b60405180910390fd5b610f4b816114cc565b50565b60007f01ffc9a7000000000000000000000000000000000000000000000000000000007bffffffffffffffffffffffffffffffffffffffffffffffffffffffff1916827bffffffffffffffffffffffffffffffffffffffffffffffffffffffff1916149050919050565b610fc1816119dc565b611000576040517f08c379a0000000000000000000000000000000000000000000000000000000008152600401610ff79061282b565b60405180910390fd5b50565b600033905090565b816004600083815260200190815260200160002060006101000a81548173ffffffffffffffffffffffffffffffffffffffff021916908373ffffffffffffffffffffffffffffffffffffffff160217905550808273ffffffffffffffffffffffffffffffffffffffff1661107e83610901565b73ffffffffffffffffffffffffffffffffffffffff167f8c5be1e5ebec7d5bd14f71427d1e84f3dd0314c0f7b2291e5b200ac8c7c3b92560405160405180910390a45050565b6000806110d083610901565b90508073ffffffffffffffffffffffffffffffffffffffff168473ffffffffffffffffffffffffffffffffffffffff16148061111257506111118185610e36565b5b8061115057508373ffffffffffffffffffffffffffffffffffffffff16611138846106f5565b73ffffffffffffffffffffffffffffffffffffffff16145b91505092915050565b8273ffffffffffffffffffffffffffffffffffffffff1661117982610901565b73ffffffffffffffffffffffffffffffffffffffff16146111cf576040517f08c379a00000000000000000000000000000000000000000000000000000000081526004016111c69061270b565b60405180910390fd5b600073ffffffffffffffffffffffffffffffffffffffff168273ffffffffffffffffffffffffffffffffffffffff16141561123f576040517f08c379a00000000000000000000000000000000000000000000000000000000081526004016112369061274b565b60405180910390fd5b61124a838383611a48565b61125560008261100b565b6001600360008573ffffffffffffffffffffffffffffffffffffffff1673ffffffffffffffffffffffffffffffffffffffff16815260200190815260200160002060008282546112a59190612a17565b925050819055506001600360008473ffffffffffffffffffffffffffffffffffffffff1673ffffffffffffffffffffffffffffffffffffffff16815260200190815260200160002060008282546112fc9190612990565b92505081905550816002600083815260200190815260200160002060006101000a81548173ffffffffffffffffffffffffffffffffffffffff021916908373ffffffffffffffffffffffffffffffffffffffff160217905550808273ffffffffffffffffffffffffffffffffffffffff168473ffffffffffffffffffffffffffffffffffffffff167fddf252ad1be2c89b69c2b068fc378daa952ba7f163c4a11628f55a4df523b3ef60405160405180910390a46113bb838383611a4d565b505050565b6113c8611003565b73ffffffffffffffffffffffffffffffffffffffff166113e6610b48565b73ffffffffffffffffffffffffffffffffffffffff161461143c576040517f08c379a00000000000000000000000000000000000000000000000000000000081526004016114339061280b565b60405180910390fd5b565b7f000000000000000000000000000000000000000000000000000000000000000073ffffffffffffffffffffffffffffffffffffffff166351cff8d9826040518263ffffffff1660e01b81526004016114979190612627565b600060405180830381600087803b1580156114b157600080fd5b505af11580156114c5573d6000803e3d6000fd5b5050505050565b6000600660009054906101000a900473ffffffffffffffffffffffffffffffffffffffff16905081600660006101000a81548173ffffffffffffffffffffffffffffffffffffffff021916908373ffffffffffffffffffffffffffffffffffffffff1602179055508173ffffffffffffffffffffffffffffffffffffffff168173ffffffffffffffffffffffffffffffffffffffff167f8be0079c531659141344cd1fd0a4f28419497f9722a3daafe3b4186f6b6457e060405160405180910390a35050565b600081600001549050919050565b6001816000016000828254019250508190555050565b6115d0828260405180602001604052806000815250611a52565b5050565b8173ffffffffffffffffffffffffffffffffffffffff168373ffffffffffffffffffffffffffffffffffffffff161415611643576040517f08c379a000000000000000000000000000000000000000000000000000000000815260040161163a9061276b565b60405180910390fd5b80600560008573ffffffffffffffffffffffffffffffffffffffff1673ffffffffffffffffffffffffffffffffffffffff16815260200190815260200160002060008473ffffffffffffffffffffffffffffffffffffffff1673ffffffffffffffffffffffffffffffffffffffff16815260200190815260200160002060006101000a81548160ff0219169083151502179055508173ffffffffffffffffffffffffffffffffffffffff168373ffffffffffffffffffffffffffffffffffffffff167f17307eab39ab6107e8899845ad3d59bd9653f200f220920489ca2b5937696c3183604051611734919061268e565b60405180910390a3505050565b61174c848484611159565b61175884848484611aad565b611797576040517f08c379a000000000000000000000000000000000000000000000000000000000815260040161178e906126cb565b60405180910390fd5b50505050565b6060600880546117ac90612b13565b80601f01602080910402602001604051908101604052809291908181526020018280546117d890612b13565b80156118255780601f106117fa57610100808354040283529160200191611825565b820191906000526020600020905b81548152906001019060200180831161180857829003601f168201915b5050505050905090565b60606000821415611877576040518060400160405280600181526020017f300000000000000000000000000000000000000000000000000000000000000081525090506119d7565b600082905060005b600082146118a957808061189290612b76565b915050600a826118a291906129e6565b915061187f565b60008167ffffffffffffffff8111156118eb577f4e487b7100000000000000000000000000000000000000000000000000000000600052604160045260246000fd5b6040519080825280601f01601f19166020018201604052801561191d5781602001600182028036833780820191505090505b5090505b600085146119d0576001826119369190612a17565b9150600a856119459190612bbf565b60306119519190612990565b60f81b81838151811061198d577f4e487b7100000000000000000000000000000000000000000000000000000000600052603260045260246000fd5b60200101907effffffffffffffffffffffffffffffffffffffffffffffffffffffffffffff1916908160001a905350600a856119c991906129e6565b9450611921565b8093505050505b919050565b60008073ffffffffffffffffffffffffffffffffffffffff166002600084815260200190815260200160002060009054906101000a900473ffffffffffffffffffffffffffffffffffffffff1673ffffffffffffffffffffffffffffffffffffffff1614159050919050565b505050565b505050565b611a5c8383611c44565b611a696000848484611aad565b611aa8576040517f08c379a0000000000000000000000000000000000000000000000000000000008152600401611a9f906126cb565b60405180910390fd5b505050565b6000611ace8473ffffffffffffffffffffffffffffffffffffffff16611e1e565b15611c37578373ffffffffffffffffffffffffffffffffffffffff1663150b7a02611af7611003565b8786866040518563ffffffff1660e01b8152600401611b199493929190612642565b602060405180830381600087803b158015611b3357600080fd5b505af1925050508015611b6457506040513d601f19601f82011682018060405250810190611b619190612240565b60015b611be7573d8060008114611b94576040519150601f19603f3d011682016040523d82523d6000602084013e611b99565b606091505b50600081511415611bdf576040517f08c379a0000000000000000000000000000000000000000000000000000000008152600401611bd6906126cb565b60405180910390fd5b805181602001fd5b63150b7a0260e01b7bffffffffffffffffffffffffffffffffffffffffffffffffffffffff1916817bffffffffffffffffffffffffffffffffffffffffffffffffffffffff191614915050611c3c565b600190505b949350505050565b600073ffffffffffffffffffffffffffffffffffffffff168273ffffffffffffffffffffffffffffffffffffffff161415611cb4576040517f08c379a0000000000000000000000000000000000000000000000000000000008152600401611cab906127eb565b60405180910390fd5b611cbd816119dc565b15611cfd576040517f08c379a0000000000000000000000000000000000000000000000000000000008152600401611cf49061272b565b60405180910390fd5b611d0960008383611a48565b6001600360008473ffffffffffffffffffffffffffffffffffffffff1673ffffffffffffffffffffffffffffffffffffffff1681526020019081526020016000206000828254611d599190612990565b92505081905550816002600083815260200190815260200160002060006101000a81548173ffffffffffffffffffffffffffffffffffffffff021916908373ffffffffffffffffffffffffffffffffffffffff160217905550808273ffffffffffffffffffffffffffffffffffffffff16600073ffffffffffffffffffffffffffffffffffffffff167fddf252ad1be2c89b69c2b068fc378daa952ba7f163c4a11628f55a4df523b3ef60405160405180910390a4611e1a60008383611a4d565b5050565b6000808273ffffffffffffffffffffffffffffffffffffffff163b119050919050565b828054611e4d90612b13565b90600052602060002090601f016020900481019282611e6f5760008555611eb6565b82601f10611e8857805160ff1916838001178555611eb6565b82800160010185558215611eb6579182015b82811115611eb5578251825591602001919060010190611e9a565b5b509050611ec39190611ec7565b5090565b5b80821115611ee0576000816000905550600101611ec8565b5090565b6000611ef7611ef2846128eb565b6128c6565b905082815260208101848484011115611f0f57600080fd5b611f1a848285612ad1565b509392505050565b6000611f35611f308461291c565b6128c6565b905082815260208101848484011115611f4d57600080fd5b611f58848285612ad1565b509392505050565b600081359050611f6f8161307a565b92915050565b600081359050611f8481613091565b92915050565b600081359050611f99816130a8565b92915050565b600081359050611fae816130bf565b92915050565b600081519050611fc3816130bf565b92915050565b600082601f830112611fda57600080fd5b8135611fea848260208601611ee4565b91505092915050565b600082601f83011261200457600080fd5b8135612014848260208601611f22565b91505092915050565b60008135905061202c816130d6565b92915050565b600081519050612041816130d6565b92915050565b60006020828403121561205957600080fd5b600061206784828501611f60565b91505092915050565b60006020828403121561208257600080fd5b600061209084828501611f75565b91505092915050565b600080604083850312156120ac57600080fd5b60006120ba85828601611f60565b92505060206120cb85828601611f60565b9150509250929050565b6000806000606084860312156120ea57600080fd5b60006120f886828701611f60565b935050602061210986828701611f60565b925050604061211a8682870161201d565b9150509250925092565b6000806000806080858703121561213a57600080fd5b600061214887828801611f60565b945050602061215987828801611f60565b935050604061216a8782880161201d565b925050606085013567ffffffffffffffff81111561218757600080fd5b61219387828801611fc9565b91505092959194509250565b600080604083850312156121b257600080fd5b60006121c085828601611f60565b92505060206121d185828601611f8a565b9150509250929050565b600080604083850312156121ee57600080fd5b60006121fc85828601611f60565b925050602061220d8582860161201d565b9150509250929050565b60006020828403121561222957600080fd5b600061223784828501611f9f565b91505092915050565b60006020828403121561225257600080fd5b600061226084828501611fb4565b91505092915050565b60006020828403121561227b57600080fd5b600082013567ffffffffffffffff81111561229557600080fd5b6122a184828501611ff3565b91505092915050565b6000602082840312156122bc57600080fd5b60006122ca8482850161201d565b91505092915050565b6000602082840312156122e557600080fd5b60006122f384828501612032565b91505092915050565b61230581612a5d565b82525050565b61231481612a4b565b82525050565b61232381612a6f565b82525050565b60006123348261294d565b61233e8185612963565b935061234e818560208601612ae0565b61235781612cac565b840191505092915050565b600061236d82612958565b6123778185612974565b9350612387818560208601612ae0565b61239081612cac565b840191505092915050565b60006123a682612958565b6123b08185612985565b93506123c0818560208601612ae0565b80840191505092915050565b60006123d9603283612974565b91506123e482612cbd565b604082019050919050565b60006123fc602683612974565b915061240782612d0c565b604082019050919050565b600061241f602583612974565b915061242a82612d5b565b604082019050919050565b6000612442601c83612974565b915061244d82612daa565b602082019050919050565b6000612465602483612974565b915061247082612dd3565b604082019050919050565b6000612488601983612974565b915061249382612e22565b602082019050919050565b60006124ab602e83612974565b91506124b682612e4b565b604082019050919050565b60006124ce602983612974565b91506124d982612e9a565b604082019050919050565b60006124f1603e83612974565b91506124fc82612ee9565b604082019050919050565b6000612514602083612974565b915061251f82612f38565b602082019050919050565b6000612537602083612974565b915061254282612f61565b602082019050919050565b600061255a601883612974565b915061256582612f8a565b602082019050919050565b600061257d602183612974565b915061258882612fb3565b604082019050919050565b60006125a0601283612974565b91506125ab82613002565b602082019050919050565b60006125c3602e83612974565b91506125ce8261302b565b604082019050919050565b6125e281612ac7565b82525050565b60006125f4828561239b565b9150612600828461239b565b91508190509392505050565b6000602082019050612621600083018461230b565b92915050565b600060208201905061263c60008301846122fc565b92915050565b6000608082019050612657600083018761230b565b612664602083018661230b565b61267160408301856125d9565b81810360608301526126838184612329565b905095945050505050565b60006020820190506126a3600083018461231a565b92915050565b600060208201905081810360008301526126c38184612362565b905092915050565b600060208201905081810360008301526126e4816123cc565b9050919050565b60006020820190508181036000830152612704816123ef565b9050919050565b6000602082019050818103600083015261272481612412565b9050919050565b6000602082019050818103600083015261274481612435565b9050919050565b6000602082019050818103600083015261276481612458565b9050919050565b600060208201905081810360008301526127848161247b565b9050919050565b600060208201905081810360008301526127a48161249e565b9050919050565b600060208201905081810360008301526127c4816124c1565b9050919050565b600060208201905081810360008301526127e4816124e4565b9050919050565b6000602082019050818103600083015261280481612507565b9050919050565b600060208201905081810360008301526128248161252a565b9050919050565b600060208201905081810360008301526128448161254d565b9050919050565b6000602082019050818103600083015261286481612570565b9050919050565b6000602082019050818103600083015261288481612593565b9050919050565b600060208201905081810360008301526128a4816125b6565b9050919050565b60006020820190506128c060008301846125d9565b92915050565b60006128d06128e1565b90506128dc8282612b45565b919050565b6000604051905090565b600067ffffffffffffffff82111561290657612905612c7d565b5b61290f82612cac565b9050602081019050919050565b600067ffffffffffffffff82111561293757612936612c7d565b5b61294082612cac565b9050602081019050919050565b600081519050919050565b600081519050919050565b600082825260208201905092915050565b600082825260208201905092915050565b600081905092915050565b600061299b82612ac7565b91506129a683612ac7565b9250827fffffffffffffffffffffffffffffffffffffffffffffffffffffffffffffffff038211156129db576129da612bf0565b5b828201905092915050565b60006129f182612ac7565b91506129fc83612ac7565b925082612a0c57612a0b612c1f565b5b828204905092915050565b6000612a2282612ac7565b9150612a2d83612ac7565b925082821015612a4057612a3f612bf0565b5b828203905092915050565b6000612a5682612aa7565b9050919050565b6000612a6882612aa7565b9050919050565b60008115159050919050565b60007fffffffff0000000000000000000000000000000000000000000000000000000082169050919050565b600073ffffffffffffffffffffffffffffffffffffffff82169050919050565b6000819050919050565b82818337600083830152505050565b60005b83811015612afe578082015181840152602081019050612ae3565b83811115612b0d576000848401525b50505050565b60006002820490506001821680612b2b57607f821691505b60208210811415612b3f57612b3e612c4e565b5b50919050565b612b4e82612cac565b810181811067ffffffffffffffff82111715612b6d57612b6c612c7d565b5b80604052505050565b6000612b8182612ac7565b91507fffffffffffffffffffffffffffffffffffffffffffffffffffffffffffffffff821415612bb457612bb3612bf0565b5b600182019050919050565b6000612bca82612ac7565b9150612bd583612ac7565b925082612be557612be4612c1f565b5b828206905092915050565b7f4e487b7100000000000000000000000000000000000000000000000000000000600052601160045260246000fd5b7f4e487b7100000000000000000000000000000000000000000000000000000000600052601260045260246000fd5b7f4e487b7100000000000000000000000000000000000000000000000000000000600052602260045260246000fd5b7f4e487b7100000000000000000000000000000000000000000000000000000000600052604160045260246000fd5b6000601f19601f8301169050919050565b7f4552433732313a207472616e7366657220746f206e6f6e20455243373231526560008201527f63656976657220696d706c656d656e7465720000000000000000000000000000602082015250565b7f4f776e61626c653a206e6577206f776e657220697320746865207a65726f206160008201527f6464726573730000000000000000000000000000000000000000000000000000602082015250565b7f4552433732313a207472616e736665722066726f6d20696e636f72726563742060008201527f6f776e6572000000000000000000000000000000000000000000000000000000602082015250565b7f4552433732313a20746f6b656e20616c7265616479206d696e74656400000000600082015250565b7f4552433732313a207472616e7366657220746f20746865207a65726f2061646460008201527f7265737300000000000000000000000000000000000000000000000000000000602082015250565b7f4552433732313a20617070726f766520746f2063616c6c657200000000000000600082015250565b7f5472616e73616374696f6e2076616c756520646964206e6f7420657175616c2060008201527f746865206d696e74207072696365000000000000000000000000000000000000602082015250565b7f4552433732313a2061646472657373207a65726f206973206e6f74206120766160008201527f6c6964206f776e65720000000000000000000000000000000000000000000000602082015250565b7f4552433732313a20617070726f76652063616c6c6572206973206e6f7420746f60008201527f6b656e206f776e6572206e6f7220617070726f76656420666f7220616c6c0000602082015250565b7f4552433732313a206d696e7420746f20746865207a65726f2061646472657373600082015250565b7f4f776e61626c653a2063616c6c6572206973206e6f7420746865206f776e6572600082015250565b7f4552433732313a20696e76616c696420746f6b656e2049440000000000000000600082015250565b7f4552433732313a20617070726f76616c20746f2063757272656e74206f776e6560008201527f7200000000000000000000000000000000000000000000000000000000000000602082015250565b7f4d617820737570706c7920726561636865640000000000000000000000000000600082015250565b7f4552433732313a2063616c6c6572206973206e6f7420746f6b656e206f776e6560008201527f72206e6f7220617070726f766564000000000000000000000000000000000000602082015250565b61308381612a4b565b811461308e57600080fd5b50565b61309a81612a5d565b81146130a557600080fd5b50565b6130b181612a6f565b81146130bc57600080fd5b50565b6130c881612a7b565b81146130d357600080fd5b50565b6130df81612ac7565b81146130ea57600080fd5b5056fea2646970667358221220af4d2417d22dc5dd2468a70a4e8e41a60e22c8d2515665fffc12325df0926a6764736f6c63430008010033608060405234801561001057600080fd5b5061002d61002261003260201b60201c565b61003a60201b60201c565b6100fe565b600033905090565b60008060009054906101000a900473ffffffffffffffffffffffffffffffffffffffff169050816000806101000a81548173ffffffffffffffffffffffffffffffffffffffff021916908373ffffffffffffffffffffffffffffffffffffffff1602179055508173ffffffffffffffffffffffffffffffffffffffff168173ffffffffffffffffffffffffffffffffffffffff167f8be0079c531659141344cd1fd0a4f28419497f9722a3daafe3b4186f6b6457e060405160405180910390a35050565b610aaa8061010d6000396000f3fe6080604052600436106100555760003560e01c806351cff8d91461005a578063715018a6146100835780638da5cb5b1461009a578063e3a9db1a146100c5578063f2fde38b14610102578063f340fa011461012b575b600080fd5b34801561006657600080fd5b50610081600480360381019061007c91906106a3565b610147565b005b34801561008f57600080fd5b50610098610253565b005b3480156100a657600080fd5b506100af610267565b6040516100bc91906107ae565b60405180910390f35b3480156100d157600080fd5b506100ec60048036038101906100e7919061067a565b610290565b6040516100f99190610849565b60405180910390f35b34801561010e57600080fd5b506101296004803603810190610124919061067a565b6102d9565b005b6101456004803603810190610140919061067a565b61035d565b005b61014f610412565b6000600160008373ffffffffffffffffffffffffffffffffffffffff1673ffffffffffffffffffffffffffffffffffffffff1681526020019081526020016000205490506000600160008473ffffffffffffffffffffffffffffffffffffffff1673ffffffffffffffffffffffffffffffffffffffff16815260200190815260200160002081905550610201818373ffffffffffffffffffffffffffffffffffffffff1661049090919063ffffffff16565b8173ffffffffffffffffffffffffffffffffffffffff167f7084f5476618d8e60b11ef0d7d3f06914655adb8793e28ff7f018d4c76d505d5826040516102479190610849565b60405180910390a25050565b61025b610412565b6102656000610584565b565b60008060009054906101000a900473ffffffffffffffffffffffffffffffffffffffff16905090565b6000600160008373ffffffffffffffffffffffffffffffffffffffff1673ffffffffffffffffffffffffffffffffffffffff168152602001908152602001600020549050919050565b6102e1610412565b600073ffffffffffffffffffffffffffffffffffffffff168173ffffffffffffffffffffffffffffffffffffffff161415610351576040517f08c379a0000000000000000000000000000000000000000000000000000000008152600401610348906107c9565b60405180910390fd5b61035a81610584565b50565b610365610412565b600034905080600160008473ffffffffffffffffffffffffffffffffffffffff1673ffffffffffffffffffffffffffffffffffffffff16815260200190815260200160002060008282546103b99190610880565b925050819055508173ffffffffffffffffffffffffffffffffffffffff167f2da466a7b24304f47e87fa2e1e5a81b9831ce54fec19055ce277ca2f39ba42c4826040516104069190610849565b60405180910390a25050565b61041a610648565b73ffffffffffffffffffffffffffffffffffffffff16610438610267565b73ffffffffffffffffffffffffffffffffffffffff161461048e576040517f08c379a000000000000000000000000000000000000000000000000000000000815260040161048590610829565b60405180910390fd5b565b804710156104d3576040517f08c379a00000000000000000000000000000000000000000000000000000000081526004016104ca90610809565b60405180910390fd5b60008273ffffffffffffffffffffffffffffffffffffffff16826040516104f990610799565b60006040518083038185875af1925050503d8060008114610536576040519150601f19603f3d011682016040523d82523d6000602084013e61053b565b606091505b505090508061057f576040517f08c379a0000000000000000000000000000000000000000000000000000000008152600401610576906107e9565b60405180910390fd5b505050565b60008060009054906101000a900473ffffffffffffffffffffffffffffffffffffffff169050816000806101000a81548173ffffffffffffffffffffffffffffffffffffffff021916908373ffffffffffffffffffffffffffffffffffffffff1602179055508173ffffffffffffffffffffffffffffffffffffffff168173ffffffffffffffffffffffffffffffffffffffff167f8be0079c531659141344cd1fd0a4f28419497f9722a3daafe3b4186f6b6457e060405160405180910390a35050565b600033905090565b60008135905061065f81610a46565b92915050565b60008135905061067481610a5d565b92915050565b60006020828403121561068c57600080fd5b600061069a84828501610650565b91505092915050565b6000602082840312156106b557600080fd5b60006106c384828501610665565b91505092915050565b6106d5816108d6565b82525050565b60006106e860268361086f565b91506106f382610953565b604082019050919050565b600061070b603a8361086f565b9150610716826109a2565b604082019050919050565b600061072e601d8361086f565b9150610739826109f1565b602082019050919050565b600061075160208361086f565b915061075c82610a1a565b602082019050919050565b6000610774600083610864565b915061077f82610a43565b600082019050919050565b6107938161091a565b82525050565b60006107a482610767565b9150819050919050565b60006020820190506107c360008301846106cc565b92915050565b600060208201905081810360008301526107e2816106db565b9050919050565b60006020820190508181036000830152610802816106fe565b9050919050565b6000602082019050818103600083015261082281610721565b9050919050565b6000602082019050818103600083015261084281610744565b9050919050565b600060208201905061085e600083018461078a565b92915050565b600081905092915050565b600082825260208201905092915050565b600061088b8261091a565b91506108968361091a565b9250827fffffffffffffffffffffffffffffffffffffffffffffffffffffffffffffffff038211156108cb576108ca610924565b5b828201905092915050565b60006108e1826108fa565b9050919050565b60006108f3826108fa565b9050919050565b600073ffffffffffffffffffffffffffffffffffffffff82169050919050565b6000819050919050565b7f4e487b7100000000000000000000000000000000000000000000000000000000600052601160045260246000fd5b7f4f776e61626c653a206e6577206f776e657220697320746865207a65726f206160008201527f6464726573730000000000000000000000000000000000000000000000000000602082015250565b7f416464726573733a20756e61626c6520746f2073656e642076616c75652c207260008201527f6563697069656e74206d61792068617665207265766572746564000000000000602082015250565b7f416464726573733a20696e73756666696369656e742062616c616e6365000000600082015250565b7f4f776e61626c653a2063616c6c6572206973206e6f7420746865206f776e6572600082015250565b50565b610a4f816108d6565b8114610a5a57600080fd5b50565b610a66816108e8565b8114610a7157600080fd5b5056fea26469706673582212208572fc3f6c137b8243928f2f2df2b1b4a84c2f286c9f749c054889c9c924d69b64736f6c63430008010033",
  "linkReferences": {},
  "deployedLinkReferences": {}
}