{
    "contractName": "NFT",
    "abi": [
        {
            "inputs": [],
            "stateMutability": "nonpayable",
            "type": "constructor"
        },
        {
            "anonymous": false,
            "inputs": [
                {
                    "indexed": true,
                    "internalType": "address",
                    "name": "owner",
                    "type": "address"
                },
                {
                    "indexed": true,
                    "internalType": "address",
                    "name": "approved",
                    "type": "address"
                },
                {
                    "indexed": true,
                    "internalType": "uint256",
                    "name": "tokenId",
                    "type": "uint256"
                }
            ],
            "name": "Approval",
            "type": "event"
        },
        {
            "anonymous": false,
            "inputs": [
                {
                    "indexed": true,
                    "internalType": "address",
                    "name": "owner",
                    "type": "address"
                },
                {
                    "indexed": true,
                    "internalType": "address",
                    "name": "operator",
                    "type": "address"
                },
                {
                    "indexed": false,
                    "internalType": "bool",
                    "name": "approved",
                    "type": "bool"
                }
            ],
            "name": "ApprovalForAll",
            "type": "event"
        },
        {
            "anonymous": false,
            "inputs": [
                {
                    "indexed": true,
                    "internalType": "address",
                    "name": "from",
                    "type": "address"
                },
                {
                    "indexed": true,
                    "internalType": "address",
                    "name": "to",
                    "type": "address"
                },
                {
                    "indexed": true,
                    "internalType": "uint256",
                    "name": "tokenId",
                    "type": "uint256"
                }
            ],
            "name": "Transfer",
            "type": "event"
        },
        {
            "inputs": [
                {
                    "internalType": "address",
                    "name": "to",
                    "type": "address"
                },
                {
                    "internalType": "uint256",
                    "name": "tokenId",
                    "type": "uint256"
                }
            ],
            "name": "approve",
            "outputs": [],
            "stateMutability": "nonpayable",
            "type": "function"
        },
        {
            "inputs": [
                {
                    "internalType": "address",
                    "name": "owner",
                    "type": "address"
                }
            ],
            "name": "balanceOf",
            "outputs": [
                {
                    "internalType": "uint256",
                    "name": "",
                    "type": "uint256"
                }
            ],
            "stateMutability": "view",
            "type": "function"
        },
        {
            "inputs": [],
            "name": "baseTokenURI",
            "outputs": [
                {
                    "internalType": "string",
                    "name": "",
                    "type": "string"
                }
            ],
            "stateMutability": "view",
            "type": "function"
        },
        {
            "inputs": [
                {
                    "internalType": "uint256",
                    "name": "tokenId",
                    "type": "uint256"
                }
            ],
            "name": "getApproved",
            "outputs": [
                {
                    "internalType": "address",
                    "name": "",
                    "type": "address"
                }
            ],
            "stateMutability": "view",
            "type": "function"
        },
        {
            "inputs": [
                {
                    "internalType": "address",
                    "name": "owner",
                    "type": "address"
                },
                {
                    "internalType": "address",
                    "name": "operator",
                    "type": "address"
                }
            ],
            "name": "isApprovedForAll",
            "outputs": [
                {
                    "internalType": "bool",
                    "name": "",
                    "type": "bool"
                }
            ],
            "stateMutability": "view",
            "type": "function"
        },
        {
            "inputs": [
                {
                    "internalType": "address",
                    "name": "recipient",
                    "type": "address"
                }
            ],
            "name": "mintTo",
            "outputs": [
                {
                    "internalType": "uint256",
                    "name": "",
                    "type": "uint256"
                }
            ],
            "stateMutability": "nonpayable",
            "type": "function"
        },
        {
            "inputs": [],
            "name": "name",
            "outputs": [
                {
                    "internalType": "string",
                    "name": "",
                    "type": "string"
                }
            ],
            "stateMutability": "view",
            "type": "function"
        },
        {
            "inputs": [
                {
                    "internalType": "uint256",
                    "name": "tokenId",
                    "type": "uint256"
                }
            ],
            "name": "ownerOf",
            "outputs": [
                {
                    "internalType": "address",
                    "name": "",
                    "type": "address"
                }
            ],
            "stateMutability": "view",
            "type": "function"
        },
        {
            "inputs": [
                {
                    "internalType": "address",
                    "name": "from",
                    "type": "address"
                },
                {
                    "internalType": "address",
                    "name": "to",
                    "type": "address"
                },
                {
                    "internalType": "uint256",
                    "name": "tokenId",
                    "type": "uint256"
                }
            ],
            "name": "safeTransferFrom",
            "outputs": [],
            "stateMutability": "nonpayable",
            "type": "function"
        },
        {
            "inputs": [
                {
                    "internalType": "address",
                    "name": "from",
                    "type": "address"
                },
                {
                    "internalType": "address",
                    "name": "to",
                    "type": "address"
                },
                {
                    "internalType": "uint256",
                    "name": "tokenId",
                    "type": "uint256"
                },
                {
                    "internalType": "bytes",
                    "name": "data",
                    "type": "bytes"
                }
            ],
            "name": "safeTransferFrom",
            "outputs": [],
            "stateMutability": "nonpayable",
            "type": "function"
        },
        {
            "inputs": [
                {
                    "internalType": "address",
                    "name": "operator",
                    "type": "address"
                },
                {
                    "internalType": "bool",
                    "name": "approved",
                    "type": "bool"
                }
            ],
            "name": "setApprovalForAll",
            "outputs": [],
            "stateMutability": "nonpayable",
            "type": "function"
        },
        {
            "inputs": [
                {
                    "internalType": "string",
                    "name": "_baseTokenURI",
                    "type": "string"
                }
            ],
            "name": "setBaseTokenURI",
            "outputs": [],
            "stateMutability": "nonpayable",
            "type": "function"
        },
        {
            "inputs": [
                {
                    "internalType": "bytes4",
                    "name": "interfaceId",
                    "type": "bytes4"
                }
            ],
            "name": "supportsInterface",
            "outputs": [
                {
                    "internalType": "bool",
                    "name": "",
                    "type": "bool"
                }
            ],
            "stateMutability": "view",
            "type": "function"
        },
        {
            "inputs": [],
            "name": "symbol",
            "outputs": [
                {
                    "internalType": "string",
                    "name": "",
                    "type": "string"
                }
            ],
            "stateMutability": "view",
            "type": "function"
        },
        {
            "inputs": [
                {
                    "internalType": "uint256",
                    "name": "tokenId",
                    "type": "uint256"
                }
            ],
            "name": "tokenURI",
            "outputs": [
                {
                    "internalType": "string",
                    "name": "",
                    "type": "string"
                }
            ],
            "stateMutability": "view",
            "type": "function"
        },
        {
            "inputs": [
                {
                    "internalType": "address",
                    "name": "from",
                    "type": "address"
                },
                {
                    "internalType": "address",
                    "name": "to",
                    "type": "address"
                },
                {
                    "internalType": "uint256",
                    "name": "tokenId",
                    "type": "uint256"
                }
            ],
            "name": "transferFrom",
            "outputs": [],
            "stateMutability": "nonpayable",
            "type": "function"
        }
    ],
    "bytecode": "60806040523480156200001157600080fd5b506040518060400160405280600b81526020016a139195151d5d1bdc9a585b60aa1b8152506040518060400160405280600381526020016213919560ea1b81525081600090816200006391906200013f565b5060016200007282826200013f565b5050604080516020810190915260008152600791506200009390826200013f565b506200020b565b634e487b7160e01b600052604160045260246000fd5b600181811c90821680620000c557607f821691505b602082108103620000e657634e487b7160e01b600052602260045260246000fd5b50919050565b601f8211156200013a57600081815260208120601f850160051c81016020861015620001155750805b601f850160051c820191505b81811015620001365782815560010162000121565b5050505b505050565b81516001600160401b038111156200015b576200015b6200009a565b62000173816200016c8454620000b0565b84620000ec565b602080601f831160018114620001ab5760008415620001925750858301515b600019600386901b1c1916600185901b17855562000136565b600085815260208120601f198616915b82811015620001dc57888601518255948401946001909101908401620001bb565b5085821015620001fb5787850151600019600388901b60f8161c191681555b5050505050600190811b01905550565b611555806200021b6000396000f3fe608060405234801561001057600080fd5b50600436106101005760003560e01c806370a0823111610097578063b88d4fde11610066578063b88d4fde1461021d578063c87b56dd14610230578063d547cfb714610243578063e985e9c51461024b57600080fd5b806370a08231146101ce578063755edd17146101ef57806395d89b4114610202578063a22cb4651461020a57600080fd5b806323b872dd116100d357806323b872dd1461018257806330176e131461019557806342842e0e146101a85780636352211e146101bb57600080fd5b806301ffc9a71461010557806306fdde031461012d578063081812fc14610142578063095ea7b31461016d575b600080fd5b610118610113366004610efe565b610287565b60405190151581526020015b60405180910390f35b6101356102d9565b6040516101249190610f73565b610155610150366004610f86565b61036b565b6040516001600160a01b039091168152602001610124565b61018061017b366004610fbb565b610392565b005b610180610190366004610fe5565b6104ac565b6101806101a33660046110ad565b6104dd565b6101806101b6366004610fe5565b6104ed565b6101556101c9366004610f86565b610508565b6101e16101dc3660046110f6565b610568565b604051908152602001610124565b6101e16101fd3660046110f6565b6105ee565b610135610615565b610180610218366004611111565b610624565b61018061022b36600461114d565b61062f565b61013561023e366004610f86565b610667565b6101356106ce565b6101186102593660046111c9565b6001600160a01b03918216600090815260056020908152604080832093909416825291909152205460ff1690565b60006001600160e01b031982166380ac58cd60e01b14806102b857506001600160e01b03198216635b5e139f60e01b145b806102d357506301ffc9a760e01b6001600160e01b03198316145b92915050565b6060600080546102e8906111fc565b80601f0160208091040260200160405190810160405280929190818152602001828054610314906111fc565b80156103615780601f1061033657610100808354040283529160200191610361565b820191906000526020600020905b81548152906001019060200180831161034457829003601f168201915b5050505050905090565b60006103768261075c565b506000908152600460205260409020546001600160a01b031690565b600061039d82610508565b9050806001600160a01b0316836001600160a01b03160361040f5760405162461bcd60e51b815260206004820152602160248201527f4552433732313a20617070726f76616c20746f2063757272656e74206f776e656044820152603960f91b60648201526084015b60405180910390fd5b336001600160a01b038216148061042b575061042b8133610259565b61049d5760405162461bcd60e51b815260206004820152603e60248201527f4552433732313a20617070726f76652063616c6c6572206973206e6f7420746f60448201527f6b656e206f776e6572206e6f7220617070726f76656420666f7220616c6c00006064820152608401610406565b6104a783836107be565b505050565b6104b6338261082c565b6104d25760405162461bcd60e51b815260040161040690611236565b6104a78383836108ab565b60076104e982826112d2565b5050565b6104a78383836040518060200160405280600081525061062f565b6000818152600260205260408120546001600160a01b0316806102d35760405162461bcd60e51b8152602060048201526018602482015277115490cdcc8c4e881a5b9d985b1a59081d1bdad95b88125160421b6044820152606401610406565b60006001600160a01b0382166105d25760405162461bcd60e51b815260206004820152602960248201527f4552433732313a2061646472657373207a65726f206973206e6f7420612076616044820152683634b21037bbb732b960b91b6064820152608401610406565b506001600160a01b031660009081526003602052604090205490565b60006105fe600680546001019055565b600061060960065490565b90506102d38382610a47565b6060600180546102e8906111fc565b6104e9338383610a61565b610639338361082c565b6106555760405162461bcd60e51b815260040161040690611236565b61066184848484610b2f565b50505050565b60606106728261075c565b600061067c610b62565b9050600081511161069c57604051806020016040528060008152506106c7565b806106a684610b71565b6040516020016106b7929190611392565b6040516020818303038152906040525b9392505050565b600780546106db906111fc565b80601f0160208091040260200160405190810160405280929190818152602001828054610707906111fc565b80156107545780601f1061072957610100808354040283529160200191610754565b820191906000526020600020905b81548152906001019060200180831161073757829003601f168201915b505050505081565b6000818152600260205260409020546001600160a01b03166107bb5760405162461bcd60e51b8152602060048201526018602482015277115490cdcc8c4e881a5b9d985b1a59081d1bdad95b88125160421b6044820152606401610406565b50565b600081815260046020526040902080546001600160a01b0319166001600160a01b03841690811790915581906107f382610508565b6001600160a01b03167f8c5be1e5ebec7d5bd14f71427d1e84f3dd0314c0f7b2291e5b200ac8c7c3b92560405160405180910390a45050565b60008061083883610508565b9050806001600160a01b0316846001600160a01b0316148061087f57506001600160a01b0380821660009081526005602090815260408083209388168352929052205460ff165b806108a35750836001600160a01b03166108988461036b565b6001600160a01b0316145b949350505050565b826001600160a01b03166108be82610508565b6001600160a01b0316146109225760405162461bcd60e51b815260206004820152602560248201527f4552433732313a207472616e736665722066726f6d20696e636f72726563742060448201526437bbb732b960d91b6064820152608401610406565b6001600160a01b0382166109845760405162461bcd60e51b8152602060048201526024808201527f4552433732313a207472616e7366657220746f20746865207a65726f206164646044820152637265737360e01b6064820152608401610406565b61098f6000826107be565b6001600160a01b03831660009081526003602052604081208054600192906109b89084906113d7565b90915550506001600160a01b03821660009081526003602052604081208054600192906109e69084906113ee565b909155505060008181526002602052604080822080546001600160a01b0319166001600160a01b0386811691821790925591518493918716917fddf252ad1be2c89b69c2b068fc378daa952ba7f163c4a11628f55a4df523b3ef91a4505050565b6104e9828260405180602001604052806000815250610c72565b816001600160a01b0316836001600160a01b031603610ac25760405162461bcd60e51b815260206004820152601960248201527f4552433732313a20617070726f766520746f2063616c6c6572000000000000006044820152606401610406565b6001600160a01b03838116600081815260056020908152604080832094871680845294825291829020805460ff191686151590811790915591519182527f17307eab39ab6107e8899845ad3d59bd9653f200f220920489ca2b5937696c31910160405180910390a3505050565b610b3a8484846108ab565b610b4684848484610ca5565b6106615760405162461bcd60e51b815260040161040690611406565b6060600780546102e8906111fc565b606081600003610b985750506040805180820190915260018152600360fc1b602082015290565b8160005b8115610bc25780610bac81611458565b9150610bbb9050600a83611487565b9150610b9c565b60008167ffffffffffffffff811115610bdd57610bdd611021565b6040519080825280601f01601f191660200182016040528015610c07576020820181803683370190505b5090505b84156108a357610c1c6001836113d7565b9150610c29600a8661149b565b610c349060306113ee565b60f81b818381518110610c4957610c496114af565b60200101906001600160f81b031916908160001a905350610c6b600a86611487565b9450610c0b565b610c7c8383610da6565b610c896000848484610ca5565b6104a75760405162461bcd60e51b815260040161040690611406565b60006001600160a01b0384163b15610d9b57604051630a85bd0160e11b81526001600160a01b0385169063150b7a0290610ce99033908990889088906004016114c5565b6020604051808303816000875af1925050508015610d24575060408051601f3d908101601f19168201909252610d2191810190611502565b60015b610d81573d808015610d52576040519150601f19603f3d011682016040523d82523d6000602084013e610d57565b606091505b508051600003610d795760405162461bcd60e51b815260040161040690611406565b805181602001fd5b6001600160e01b031916630a85bd0160e11b1490506108a3565b506001949350505050565b6001600160a01b038216610dfc5760405162461bcd60e51b815260206004820181905260248201527f4552433732313a206d696e7420746f20746865207a65726f20616464726573736044820152606401610406565b6000818152600260205260409020546001600160a01b031615610e615760405162461bcd60e51b815260206004820152601c60248201527f4552433732313a20746f6b656e20616c7265616479206d696e746564000000006044820152606401610406565b6001600160a01b0382166000908152600360205260408120805460019290610e8a9084906113ee565b909155505060008181526002602052604080822080546001600160a01b0319166001600160a01b03861690811790915590518392907fddf252ad1be2c89b69c2b068fc378daa952ba7f163c4a11628f55a4df523b3ef908290a45050565b6001600160e01b0319811681146107bb57600080fd5b600060208284031215610f1057600080fd5b81356106c781610ee8565b60005b83811015610f36578181015183820152602001610f1e565b838111156106615750506000910152565b60008151808452610f5f816020860160208601610f1b565b601f01601f19169290920160200192915050565b6020815260006106c76020830184610f47565b600060208284031215610f9857600080fd5b5035919050565b80356001600160a01b0381168114610fb657600080fd5b919050565b60008060408385031215610fce57600080fd5b610fd783610f9f565b946020939093013593505050565b600080600060608486031215610ffa57600080fd5b61100384610f9f565b925061101160208501610f9f565b9150604084013590509250925092565b634e487b7160e01b600052604160045260246000fd5b600067ffffffffffffffff8084111561105257611052611021565b604051601f8501601f19908116603f0116810190828211818310171561107a5761107a611021565b8160405280935085815286868601111561109357600080fd5b858560208301376000602087830101525050509392505050565b6000602082840312156110bf57600080fd5b813567ffffffffffffffff8111156110d657600080fd5b8201601f810184136110e757600080fd5b6108a384823560208401611037565b60006020828403121561110857600080fd5b6106c782610f9f565b6000806040838503121561112457600080fd5b61112d83610f9f565b91506020830135801515811461114257600080fd5b809150509250929050565b6000806000806080858703121561116357600080fd5b61116c85610f9f565b935061117a60208601610f9f565b925060408501359150606085013567ffffffffffffffff81111561119d57600080fd5b8501601f810187136111ae57600080fd5b6111bd87823560208401611037565b91505092959194509250565b600080604083850312156111dc57600080fd5b6111e583610f9f565b91506111f360208401610f9f565b90509250929050565b600181811c9082168061121057607f821691505b60208210810361123057634e487b7160e01b600052602260045260246000fd5b50919050565b6020808252602e908201527f4552433732313a2063616c6c6572206973206e6f7420746f6b656e206f776e6560408201526d1c881b9bdc88185c1c1c9bdd995960921b606082015260800190565b601f8211156104a757600081815260208120601f850160051c810160208610156112ab5750805b601f850160051c820191505b818110156112ca578281556001016112b7565b505050505050565b815167ffffffffffffffff8111156112ec576112ec611021565b611300816112fa84546111fc565b84611284565b602080601f831160018114611335576000841561131d5750858301515b600019600386901b1c1916600185901b1785556112ca565b600085815260208120601f198616915b8281101561136457888601518255948401946001909101908401611345565b50858210156113825787850151600019600388901b60f8161c191681555b5050505050600190811b01905550565b600083516113a4818460208801610f1b565b8351908301906113b8818360208801610f1b565b01949350505050565b634e487b7160e01b600052601160045260246000fd5b6000828210156113e9576113e96113c1565b500390565b60008219821115611401576114016113c1565b500190565b60208082526032908201527f4552433732313a207472616e7366657220746f206e6f6e20455243373231526560408201527131b2b4bb32b91034b6b83632b6b2b73a32b960711b606082015260800190565b60006001820161146a5761146a6113c1565b5060010190565b634e487b7160e01b600052601260045260246000fd5b60008261149657611496611471565b500490565b6000826114aa576114aa611471565b500690565b634e487b7160e01b600052603260045260246000fd5b6001600160a01b03858116825284166020820152604081018390526080606082018190526000906114f890830184610f47565b9695505050505050565b60006020828403121561151457600080fd5b81516106c781610ee856fea26469706673582212203364b5c0da15649e3d92435d6fd1923cd6bc971c1c32dce81a02df363bcbff3764736f6c634300080f0033",
    "sourcePath": "c:/Users/Hamza_Azzabi/Desktop/K2lis/NFT_Tutorial_OpenSea/contracts/NFT.sol",
    "compiler": {
        "name": "solc",
        "version": "0.8.15+commit.e14f2714"
    },
    "functionHashes": {
        "approve(address,uint256)": "095ea7b3",
        "balanceOf(address)": "70a08231",
        "baseTokenURI()": "d547cfb7",
        "getApproved(uint256)": "081812fc",
        "isApprovedForAll(address,address)": "e985e9c5",
        "mintTo(address)": "755edd17",
        "name()": "06fdde03",
        "ownerOf(uint256)": "6352211e",
        "safeTransferFrom(address,address,uint256)": "42842e0e",
        "safeTransferFrom(address,address,uint256,bytes)": "b88d4fde",
        "setApprovalForAll(address,bool)": "a22cb465",
        "setBaseTokenURI(string)": "30176e13",
        "supportsInterface(bytes4)": "01ffc9a7",
        "symbol()": "95d89b41",
        "tokenURI(uint256)": "c87b56dd",
        "transferFrom(address,address,uint256)": "23b872dd"
    },
    "gasEstimates": {
        "creation": {
            "codeDepositCost": "1092200",
            "executionCost": "infinite",
            "totalCost": "infinite"
        },
        "external": {
            "approve(address,uint256)": "infinite",
            "balanceOf(address)": "2612",
            "baseTokenURI()": "infinite",
            "getApproved(uint256)": "4792",
            "isApprovedForAll(address,address)": "infinite",
            "mintTo(address)": "infinite",
            "name()": "infinite",
            "ownerOf(uint256)": "2627",
            "safeTransferFrom(address,address,uint256)": "infinite",
            "safeTransferFrom(address,address,uint256,bytes)": "infinite",
            "setApprovalForAll(address,bool)": "26772",
            "setBaseTokenURI(string)": "infinite",
            "supportsInterface(bytes4)": "534",
            "symbol()": "infinite",
            "tokenURI(uint256)": "infinite",
            "transferFrom(address,address,uint256)": "infinite"
        },
        "internal": {
            "_baseURI()": "infinite"
        }
    }
}